{
  "_format": "hh-sol-artifact-1",
  "contractName": "LikeResolver",
  "sourceName": "contracts/LikeResolver.sol",
  "abi": [
    {
      "inputs": [
        {
          "internalType": "contract IEAS",
          "name": "eas",
          "type": "address"
        }
      ],
      "stateMutability": "nonpayable",
      "type": "constructor"
    },
    {
      "inputs": [],
      "name": "AccessDenied",
      "type": "error"
    },
    {
      "inputs": [],
      "name": "InsufficientValue",
      "type": "error"
    },
    {
      "inputs": [],
      "name": "InvalidEAS",
      "type": "error"
    },
    {
      "inputs": [],
      "name": "InvalidLength",
      "type": "error"
    },
    {
      "inputs": [],
      "name": "NotPayable",
      "type": "error"
    },
    {
      "inputs": [
        {
          "components": [
            {
              "internalType": "bytes32",
              "name": "uid",
              "type": "bytes32"
            },
            {
              "internalType": "bytes32",
              "name": "schema",
              "type": "bytes32"
            },
            {
              "internalType": "uint64",
              "name": "time",
              "type": "uint64"
            },
            {
              "internalType": "uint64",
              "name": "expirationTime",
              "type": "uint64"
            },
            {
              "internalType": "uint64",
              "name": "revocationTime",
              "type": "uint64"
            },
            {
              "internalType": "bytes32",
              "name": "refUID",
              "type": "bytes32"
            },
            {
              "internalType": "address",
              "name": "recipient",
              "type": "address"
            },
            {
              "internalType": "address",
              "name": "attester",
              "type": "address"
            },
            {
              "internalType": "bool",
              "name": "revocable",
              "type": "bool"
            },
            {
              "internalType": "bytes",
              "name": "data",
              "type": "bytes"
            }
          ],
          "internalType": "struct Attestation",
          "name": "attestation",
          "type": "tuple"
        }
      ],
      "name": "attest",
      "outputs": [
        {
          "internalType": "bool",
          "name": "",
          "type": "bool"
        }
      ],
      "stateMutability": "payable",
      "type": "function"
    },
    {
      "inputs": [
        {
          "internalType": "address",
          "name": "",
          "type": "address"
        },
        {
          "internalType": "string",
          "name": "",
          "type": "string"
        }
      ],
      "name": "hasLiked",
      "outputs": [
        {
          "internalType": "bool",
          "name": "",
          "type": "bool"
        }
      ],
      "stateMutability": "view",
      "type": "function"
    },
    {
      "inputs": [],
      "name": "isPayable",
      "outputs": [
        {
          "internalType": "bool",
          "name": "",
          "type": "bool"
        }
      ],
      "stateMutability": "pure",
      "type": "function"
    },
    {
      "inputs": [
        {
          "components": [
            {
              "internalType": "bytes32",
              "name": "uid",
              "type": "bytes32"
            },
            {
              "internalType": "bytes32",
              "name": "schema",
              "type": "bytes32"
            },
            {
              "internalType": "uint64",
              "name": "time",
              "type": "uint64"
            },
            {
              "internalType": "uint64",
              "name": "expirationTime",
              "type": "uint64"
            },
            {
              "internalType": "uint64",
              "name": "revocationTime",
              "type": "uint64"
            },
            {
              "internalType": "bytes32",
              "name": "refUID",
              "type": "bytes32"
            },
            {
              "internalType": "address",
              "name": "recipient",
              "type": "address"
            },
            {
              "internalType": "address",
              "name": "attester",
              "type": "address"
            },
            {
              "internalType": "bool",
              "name": "revocable",
              "type": "bool"
            },
            {
              "internalType": "bytes",
              "name": "data",
              "type": "bytes"
            }
          ],
          "internalType": "struct Attestation[]",
          "name": "attestations",
          "type": "tuple[]"
        },
        {
          "internalType": "uint256[]",
          "name": "values",
          "type": "uint256[]"
        }
      ],
      "name": "multiAttest",
      "outputs": [
        {
          "internalType": "bool",
          "name": "",
          "type": "bool"
        }
      ],
      "stateMutability": "payable",
      "type": "function"
    },
    {
      "inputs": [
        {
          "components": [
            {
              "internalType": "bytes32",
              "name": "uid",
              "type": "bytes32"
            },
            {
              "internalType": "bytes32",
              "name": "schema",
              "type": "bytes32"
            },
            {
              "internalType": "uint64",
              "name": "time",
              "type": "uint64"
            },
            {
              "internalType": "uint64",
              "name": "expirationTime",
              "type": "uint64"
            },
            {
              "internalType": "uint64",
              "name": "revocationTime",
              "type": "uint64"
            },
            {
              "internalType": "bytes32",
              "name": "refUID",
              "type": "bytes32"
            },
            {
              "internalType": "address",
              "name": "recipient",
              "type": "address"
            },
            {
              "internalType": "address",
              "name": "attester",
              "type": "address"
            },
            {
              "internalType": "bool",
              "name": "revocable",
              "type": "bool"
            },
            {
              "internalType": "bytes",
              "name": "data",
              "type": "bytes"
            }
          ],
          "internalType": "struct Attestation[]",
          "name": "attestations",
          "type": "tuple[]"
        },
        {
          "internalType": "uint256[]",
          "name": "values",
          "type": "uint256[]"
        }
      ],
      "name": "multiRevoke",
      "outputs": [
        {
          "internalType": "bool",
          "name": "",
          "type": "bool"
        }
      ],
      "stateMutability": "payable",
      "type": "function"
    },
    {
      "inputs": [
        {
          "components": [
            {
              "internalType": "bytes32",
              "name": "uid",
              "type": "bytes32"
            },
            {
              "internalType": "bytes32",
              "name": "schema",
              "type": "bytes32"
            },
            {
              "internalType": "uint64",
              "name": "time",
              "type": "uint64"
            },
            {
              "internalType": "uint64",
              "name": "expirationTime",
              "type": "uint64"
            },
            {
              "internalType": "uint64",
              "name": "revocationTime",
              "type": "uint64"
            },
            {
              "internalType": "bytes32",
              "name": "refUID",
              "type": "bytes32"
            },
            {
              "internalType": "address",
              "name": "recipient",
              "type": "address"
            },
            {
              "internalType": "address",
              "name": "attester",
              "type": "address"
            },
            {
              "internalType": "bool",
              "name": "revocable",
              "type": "bool"
            },
            {
              "internalType": "bytes",
              "name": "data",
              "type": "bytes"
            }
          ],
          "internalType": "struct Attestation",
          "name": "attestation",
          "type": "tuple"
        }
      ],
      "name": "revoke",
      "outputs": [
        {
          "internalType": "bool",
          "name": "",
          "type": "bool"
        }
      ],
      "stateMutability": "payable",
      "type": "function"
    },
    {
      "inputs": [],
      "name": "version",
      "outputs": [
        {
          "internalType": "string",
          "name": "",
          "type": "string"
        }
      ],
      "stateMutability": "view",
      "type": "function"
    },
    {
      "stateMutability": "payable",
      "type": "receive"
    }
  ],
  "bytecode": "0x6101006040523480156200001257600080fd5b50604051620013823803806200138283398181016040528101906200003891906200017b565b8060016003600082608081815250508160a081815250508060c08181525050505050600073ffffffffffffffffffffffffffffffffffffffff168173ffffffffffffffffffffffffffffffffffffffff1603620000c1576040517f83780ffe00000000000000000000000000000000000000000000000000000000815260040160405180910390fd5b8073ffffffffffffffffffffffffffffffffffffffff1660e08173ffffffffffffffffffffffffffffffffffffffff16815250505050620001ad565b600080fd5b600073ffffffffffffffffffffffffffffffffffffffff82169050919050565b60006200012f8262000102565b9050919050565b6000620001438262000122565b9050919050565b620001558162000136565b81146200016157600080fd5b50565b60008151905062000175816200014a565b92915050565b600060208284031215620001945762000193620000fd565b5b6000620001a48482850162000164565b91505092915050565b60805160a05160c05160e05161119b620001e7600039600061063a0152600061026f015260006102460152600061021d015261119b6000f3fe6080604052600436106100745760003560e01c8063c69bff2a1161004e578063c69bff2a14610149578063ce46e04614610186578063e49617e1146101b1578063e60c3505146101e1576100b9565b806354fd4d50146100be57806388e5b2d9146100e957806391db0b7e14610119576100b9565b366100b957610081610211565b6100b7576040517f1574f9f300000000000000000000000000000000000000000000000000000000815260040160405180910390fd5b005b600080fd5b3480156100ca57600080fd5b506100d3610216565b6040516100e09190610aec565b60405180910390f35b61010360048036038101906100fe9190610bdd565b6102b9565b6040516101109190610c79565b60405180910390f35b610133600480360381019061012e9190610bdd565b6103d4565b6040516101409190610c79565b60405180910390f35b34801561015557600080fd5b50610170600480360381019061016b9190610e22565b6104ef565b60405161017d9190610c79565b60405180910390f35b34801561019257600080fd5b5061019b610211565b6040516101a89190610c79565b60405180910390f35b6101cb60048036038101906101c69190610ea3565b610534565b6040516101d89190610c79565b60405180910390f35b6101fb60048036038101906101f69190610ea3565b61054f565b6040516102089190610c79565b60405180910390f35b600090565b60606102417f000000000000000000000000000000000000000000000000000000000000000061056a565b61026a7f000000000000000000000000000000000000000000000000000000000000000061056a565b6102937f000000000000000000000000000000000000000000000000000000000000000061056a565b6040516020016102a593929190610f74565b604051602081830303815290604052905090565b60006102c3610638565b6000858590509050838390508114610307576040517f947d5a8400000000000000000000000000000000000000000000000000000000815260040160405180910390fd5b600034905060005b828110156103c457600086868381811061032c5761032b610fbb565b5b9050602002013590508281111561036f576040517f1101129400000000000000000000000000000000000000000000000000000000815260040160405180910390fd5b61039d89898481811061038557610384610fbb565b5b90506020028101906103979190610ff9565b826106bf565b6103ae5760009450505050506103cc565b8083039250506103bd816107dd565b905061030f565b506001925050505b949350505050565b60006103de610638565b6000858590509050838390508114610422576040517f947d5a8400000000000000000000000000000000000000000000000000000000815260040160405180910390fd5b600034905060005b828110156104df57600086868381811061044757610446610fbb565b5b9050602002013590508281111561048a576040517f1101129400000000000000000000000000000000000000000000000000000000815260040160405180910390fd5b6104b88989848181106104a05761049f610fbb565b5b90506020028101906104b29190610ff9565b826107ea565b6104c95760009450505050506104e7565b8083039250506104d8816107dd565b905061042a565b506001925050505b949350505050565b6000602052816000526040600020818051602081018201805184825260208301602085012081835280955050505050506000915091509054906101000a900460ff1681565b600061053e610638565b61054882346106bf565b9050919050565b6000610559610638565b61056382346107ea565b9050919050565b60606000600161057984610909565b01905060008167ffffffffffffffff81111561059857610597610cf7565b5b6040519080825280601f01601f1916602001820160405280156105ca5781602001600182028036833780820191505090505b509050600082602001820190505b60011561062d578080600190039150507f3031323334353637383961626364656600000000000000000000000000000000600a86061a8153600a858161062157610620611022565b5b049450600085036105d8575b819350505050919050565b7f000000000000000000000000000000000000000000000000000000000000000073ffffffffffffffffffffffffffffffffffffffff163373ffffffffffffffffffffffffffffffffffffffff16146106bd576040517f4ca8886700000000000000000000000000000000000000000000000000000000815260040160405180910390fd5b565b6000806000848061012001906106d59190611051565b8101906106e291906110f2565b915091506000808373ffffffffffffffffffffffffffffffffffffffff1673ffffffffffffffffffffffffffffffffffffffff16815260200190815260200160002081604051610732919061114e565b908152602001604051809103902060009054906101000a900460ff1661075d576000925050506107d7565b60008060008473ffffffffffffffffffffffffffffffffffffffff1673ffffffffffffffffffffffffffffffffffffffff168152602001908152602001600020826040516107ab919061114e565b908152602001604051809103902060006101000a81548160ff0219169083151502179055506001925050505b92915050565b6000600182019050919050565b6000806000848061012001906108009190611051565b81019061080d91906110f2565b915091506000808373ffffffffffffffffffffffffffffffffffffffff1673ffffffffffffffffffffffffffffffffffffffff1681526020019081526020016000208160405161085d919061114e565b908152602001604051809103902060009054906101000a900460ff161561088957600092505050610903565b60016000808473ffffffffffffffffffffffffffffffffffffffff1673ffffffffffffffffffffffffffffffffffffffff168152602001908152602001600020826040516108d7919061114e565b908152602001604051809103902060006101000a81548160ff0219169083151502179055506001925050505b92915050565b600080600090507a184f03e93ff9f4daa797ed6e38ed64bf6a1f0100000000000000008310610967577a184f03e93ff9f4daa797ed6e38ed64bf6a1f010000000000000000838161095d5761095c611022565b5b0492506040810190505b6d04ee2d6d415b85acef810000000083106109a4576d04ee2d6d415b85acef8100000000838161099a57610999611022565b5b0492506020810190505b662386f26fc1000083106109d357662386f26fc1000083816109c9576109c8611022565b5b0492506010810190505b6305f5e10083106109fc576305f5e10083816109f2576109f1611022565b5b0492506008810190505b6127108310610a21576127108381610a1757610a16611022565b5b0492506004810190505b60648310610a445760648381610a3a57610a39611022565b5b0492506002810190505b600a8310610a53576001810190505b80915050919050565b600081519050919050565b600082825260208201905092915050565b60005b83811015610a96578082015181840152602081019050610a7b565b60008484015250505050565b6000601f19601f8301169050919050565b6000610abe82610a5c565b610ac88185610a67565b9350610ad8818560208601610a78565b610ae181610aa2565b840191505092915050565b60006020820190508181036000830152610b068184610ab3565b905092915050565b6000604051905090565b600080fd5b600080fd5b600080fd5b600080fd5b600080fd5b60008083601f840112610b4757610b46610b22565b5b8235905067ffffffffffffffff811115610b6457610b63610b27565b5b602083019150836020820283011115610b8057610b7f610b2c565b5b9250929050565b60008083601f840112610b9d57610b9c610b22565b5b8235905067ffffffffffffffff811115610bba57610bb9610b27565b5b602083019150836020820283011115610bd657610bd5610b2c565b5b9250929050565b60008060008060408587031215610bf757610bf6610b18565b5b600085013567ffffffffffffffff811115610c1557610c14610b1d565b5b610c2187828801610b31565b9450945050602085013567ffffffffffffffff811115610c4457610c43610b1d565b5b610c5087828801610b87565b925092505092959194509250565b60008115159050919050565b610c7381610c5e565b82525050565b6000602082019050610c8e6000830184610c6a565b92915050565b600073ffffffffffffffffffffffffffffffffffffffff82169050919050565b6000610cbf82610c94565b9050919050565b610ccf81610cb4565b8114610cda57600080fd5b50565b600081359050610cec81610cc6565b92915050565b600080fd5b7f4e487b7100000000000000000000000000000000000000000000000000000000600052604160045260246000fd5b610d2f82610aa2565b810181811067ffffffffffffffff82111715610d4e57610d4d610cf7565b5b80604052505050565b6000610d61610b0e565b9050610d6d8282610d26565b919050565b600067ffffffffffffffff821115610d8d57610d8c610cf7565b5b610d9682610aa2565b9050602081019050919050565b82818337600083830152505050565b6000610dc5610dc084610d72565b610d57565b905082815260208101848484011115610de157610de0610cf2565b5b610dec848285610da3565b509392505050565b600082601f830112610e0957610e08610b22565b5b8135610e19848260208601610db2565b91505092915050565b60008060408385031215610e3957610e38610b18565b5b6000610e4785828601610cdd565b925050602083013567ffffffffffffffff811115610e6857610e67610b1d565b5b610e7485828601610df4565b9150509250929050565b600080fd5b60006101408284031215610e9a57610e99610e7e565b5b81905092915050565b600060208284031215610eb957610eb8610b18565b5b600082013567ffffffffffffffff811115610ed757610ed6610b1d565b5b610ee384828501610e83565b91505092915050565b600081905092915050565b6000610f0282610a5c565b610f0c8185610eec565b9350610f1c818560208601610a78565b80840191505092915050565b7f2e00000000000000000000000000000000000000000000000000000000000000600082015250565b6000610f5e600183610eec565b9150610f6982610f28565b600182019050919050565b6000610f808286610ef7565b9150610f8b82610f51565b9150610f978285610ef7565b9150610fa282610f51565b9150610fae8284610ef7565b9150819050949350505050565b7f4e487b7100000000000000000000000000000000000000000000000000000000600052603260045260246000fd5b600080fd5b600080fd5b600080fd5b6000823560016101400383360303811261101657611015610fea565b5b80830191505092915050565b7f4e487b7100000000000000000000000000000000000000000000000000000000600052601260045260246000fd5b6000808335600160200384360303811261106e5761106d610fea565b5b80840192508235915067ffffffffffffffff8211156110905761108f610fef565b5b6020830192506001820236038313156110ac576110ab610ff4565b5b509250929050565b60006110bf82610c94565b9050919050565b6110cf816110b4565b81146110da57600080fd5b50565b6000813590506110ec816110c6565b92915050565b6000806040838503121561110957611108610b18565b5b6000611117858286016110dd565b925050602083013567ffffffffffffffff81111561113857611137610b1d565b5b61114485828601610df4565b9150509250929050565b600061115a8284610ef7565b91508190509291505056fea26469706673582212208c3006db5a76d239bf47cd7695c2fac294a3848024447d42b8a702d120660ab864736f6c63430008180033",
  "linkReferences": {},
  "deployedLinkReferences": {}
}